{
  "contractName": "tictactoeth",
  "abi": [
    {
      "constant": true,
      "inputs": [
        {
          "name": "",
          "type": "uint256"
        }
      ],
      "name": "games",
      "outputs": [
        {
          "name": "playerX",
          "type": "address"
        },
        {
          "name": "playerO",
          "type": "address"
        },
        {
          "name": "bet",
          "type": "uint256"
        },
        {
          "name": "wager",
          "type": "uint256"
        },
        {
          "name": "turn",
          "type": "uint256"
        },
        {
          "name": "deadline",
          "type": "uint256"
        },
        {
          "name": "numMoves",
          "type": "uint8"
        }
      ],
      "payable": false,
      "stateMutability": "view",
      "type": "function"
    },
    {
      "constant": false,
      "inputs": [],
      "name": "renounceOwnership",
      "outputs": [],
      "payable": false,
      "stateMutability": "nonpayable",
      "type": "function"
    },
    {
      "constant": true,
      "inputs": [],
      "name": "owner",
      "outputs": [
        {
          "name": "",
          "type": "address"
        }
      ],
      "payable": false,
      "stateMutability": "view",
      "type": "function"
    },
    {
      "constant": true,
      "inputs": [],
      "name": "isOwner",
      "outputs": [
        {
          "name": "",
          "type": "bool"
        }
      ],
      "payable": false,
      "stateMutability": "view",
      "type": "function"
    },
    {
      "constant": true,
      "inputs": [],
      "name": "fees",
      "outputs": [
        {
          "name": "",
          "type": "uint256"
        }
      ],
      "payable": false,
      "stateMutability": "view",
      "type": "function"
    },
    {
      "constant": true,
      "inputs": [],
      "name": "numGames",
      "outputs": [
        {
          "name": "",
          "type": "uint256"
        }
      ],
      "payable": false,
      "stateMutability": "view",
      "type": "function"
    },
    {
      "constant": false,
      "inputs": [
        {
          "name": "newOwner",
          "type": "address"
        }
      ],
      "name": "transferOwnership",
      "outputs": [],
      "payable": false,
      "stateMutability": "nonpayable",
      "type": "function"
    },
    {
      "anonymous": false,
      "inputs": [
        {
          "indexed": true,
          "name": "id",
          "type": "uint256"
        }
      ],
      "name": "gameEvent",
      "type": "event"
    },
    {
      "anonymous": false,
      "inputs": [
        {
          "indexed": true,
          "name": "previousOwner",
          "type": "address"
        },
        {
          "indexed": true,
          "name": "newOwner",
          "type": "address"
        }
      ],
      "name": "OwnershipTransferred",
      "type": "event"
    },
    {
      "constant": false,
      "inputs": [],
      "name": "collectFees",
      "outputs": [],
      "payable": false,
      "stateMutability": "nonpayable",
      "type": "function"
    },
    {
      "constant": true,
      "inputs": [
        {
          "name": "id",
          "type": "uint256"
        }
      ],
      "name": "getMoves",
      "outputs": [
        {
          "name": "moves",
          "type": "uint8[9]"
        }
      ],
      "payable": false,
      "stateMutability": "view",
      "type": "function"
    },
    {
      "constant": false,
      "inputs": [
        {
          "name": "wager",
          "type": "uint256"
        },
        {
          "name": "turn",
          "type": "uint256"
        },
        {
          "name": "move",
          "type": "uint8"
        }
      ],
      "name": "newGame",
      "outputs": [
        {
          "name": "",
          "type": "uint256"
        }
      ],
      "payable": true,
      "stateMutability": "payable",
      "type": "function"
    },
    {
      "constant": false,
      "inputs": [
        {
          "name": "id",
          "type": "uint256"
        }
      ],
      "name": "cancelGame",
      "outputs": [
        {
          "name": "",
          "type": "bool"
        }
      ],
      "payable": false,
      "stateMutability": "nonpayable",
      "type": "function"
    },
    {
      "constant": false,
      "inputs": [
        {
          "name": "id",
          "type": "uint256"
        },
        {
          "name": "move",
          "type": "uint8"
        }
      ],
      "name": "joinGame",
      "outputs": [
        {
          "name": "",
          "type": "bool"
        }
      ],
      "payable": true,
      "stateMutability": "payable",
      "type": "function"
    },
    {
      "constant": false,
      "inputs": [
        {
          "name": "id",
          "type": "uint256"
        },
        {
          "name": "move",
          "type": "uint8"
        }
      ],
      "name": "newMove",
      "outputs": [
        {
          "name": "",
          "type": "bool"
        }
      ],
      "payable": false,
      "stateMutability": "nonpayable",
      "type": "function"
    }
  ],
  "bytecode": "0x6080604052336000806101000a81548173ffffffffffffffffffffffffffffffffffffffff021916908373ffffffffffffffffffffffffffffffffffffffff1602179055506000809054906101000a900473ffffffffffffffffffffffffffffffffffffffff1673ffffffffffffffffffffffffffffffffffffffff16600073ffffffffffffffffffffffffffffffffffffffff167f8be0079c531659141344cd1fd0a4f28419497f9722a3daafe3b4186f6b6457e060405160405180910390a3611d40806100cf6000396000f3006080604052600436106100c5576000357c0100000000000000000000000000000000000000000000000000000000900463ffffffff168063117a5b90146100ca57806369958ab914610193578063715018a6146101d85780637a31afa6146101ef5780638da5cb5b1461023a5780638f32d59b146102915780639af1d35a146102c0578063b6a88298146102eb578063bb1bef0114610354578063c3f010f7146103a6578063c8796572146103d1578063ca6649c5146103e8578063f2fde38b1461042d575b600080fd5b3480156100d657600080fd5b506100f560048036038101908080359060200190929190505050610470565b604051808873ffffffffffffffffffffffffffffffffffffffff1673ffffffffffffffffffffffffffffffffffffffff1681526020018773ffffffffffffffffffffffffffffffffffffffff1673ffffffffffffffffffffffffffffffffffffffff1681526020018681526020018581526020018481526020018381526020018260ff1660ff16815260200197505050505050505060405180910390f35b34801561019f57600080fd5b506101be6004803603810190808035906020019092919050505061050e565b604051808215151515815260200191505060405180910390f35b3480156101e457600080fd5b506101ed6106a9565b005b6102246004803603810190808035906020019092919080359060200190929190803560ff16906020019092919050505061077b565b6040518082815260200191505060405180910390f35b34801561024657600080fd5b5061024f6109e7565b604051808273ffffffffffffffffffffffffffffffffffffffff1673ffffffffffffffffffffffffffffffffffffffff16815260200191505060405180910390f35b34801561029d57600080fd5b506102a6610a10565b604051808215151515815260200191505060405180910390f35b3480156102cc57600080fd5b506102d5610a67565b6040518082815260200191505060405180910390f35b3480156102f757600080fd5b5061031660048036038101908080359060200190929190505050610a6d565b6040518082600960200280838360005b83811015610341578082015181840152602081019050610326565b5050505090500191505060405180910390f35b34801561036057600080fd5b5061038c60048036038101908080359060200190929190803560ff169060200190929190505050610b0d565b604051808215151515815260200191505060405180910390f35b3480156103b257600080fd5b506103bb61116c565b6040518082815260200191505060405180910390f35b3480156103dd57600080fd5b506103e6611172565b005b61041360048036038101908080359060200190929190803560ff1690602001909291905050506111df565b604051808215151515815260200191505060405180910390f35b34801561043957600080fd5b5061046e600480360381019080803573ffffffffffffffffffffffffffffffffffffffff1690602001909291905050506115d8565b005b60038181548110151561047f57fe5b90600052602060002090600802016000915090508060000160009054906101000a900473ffffffffffffffffffffffffffffffffffffffff16908060010160009054906101000a900473ffffffffffffffffffffffffffffffffffffffff16908060020154908060030154908060040154908060050154908060060160009054906101000a900460ff16905087565b60008160038181548110151561052057fe5b906000526020600020906008020173__gameLib_______________________________637990ced890916040518263ffffffff167c01000000000000000000000000000000000000000000000000000000000281526004018082815260200191505060206040518083038186803b15801561059a57600080fd5b505af41580156105ae573d6000803e3d6000fd5b505050506040513d60208110156105c457600080fd5b810190808051906020019092919050505015156105e057600080fd5b6003838154811015156105ef57fe5b906000526020600020906008020160060160009054906101000a900460ff1660ff16600114801561068b575060038381548110151561062a57fe5b906000526020600020906008020160000160009054906101000a900473ffffffffffffffffffffffffffffffffffffffff1673ffffffffffffffffffffffffffffffffffffffff163373ffffffffffffffffffffffffffffffffffffffff16145b151561069657600080fd5b6106a18360006115f7565b915050919050565b6106b1610a10565b15156106bc57600080fd5b600073ffffffffffffffffffffffffffffffffffffffff166000809054906101000a900473ffffffffffffffffffffffffffffffffffffffff1673ffffffffffffffffffffffffffffffffffffffff167f8be0079c531659141344cd1fd0a4f28419497f9722a3daafe3b4186f6b6457e060405160405180910390a360008060006101000a81548173ffffffffffffffffffffffffffffffffffffffff021916908373ffffffffffffffffffffffffffffffffffffffff160217905550565b6000610785611b5b565b34606410151561079457600080fd5b8460641015156107a357600080fd5b836101181080156107b65750620d2f1484105b15156107c157600080fd5b60098360ff161015156107d357600080fd5b6001818460ff166009811015156107e657fe5b602002019060028111156107f657fe5b9081600281111561080357fe5b815250506003610100604051908101604052803373ffffffffffffffffffffffffffffffffffffffff168152602001600073ffffffffffffffffffffffffffffffffffffffff16815260200134815260200187815260200186815260200160008152602001600160ff168152602001838152509080600181540180825580915050906001820390600052602060002090600802016000909192909190915060008201518160000160006101000a81548173ffffffffffffffffffffffffffffffffffffffff021916908373ffffffffffffffffffffffffffffffffffffffff16021790555060208201518160010160006101000a81548173ffffffffffffffffffffffffffffffffffffffff021916908373ffffffffffffffffffffffffffffffffffffffff16021790555060408201518160020155606082015181600301556080820151816004015560a0820151816005015560c08201518160060160006101000a81548160ff021916908360ff16021790555060e08201518160070190600961098f929190611b7f565b505050506002600081548092919060010191905055506001600254037ff0e14edddeb1a8137667b41736c29944744cf4d8cc1b37661e0fdfb7c4b08b9560405160405180910390a26001600254039150509392505050565b60008060009054906101000a900473ffffffffffffffffffffffffffffffffffffffff16905090565b60008060009054906101000a900473ffffffffffffffffffffffffffffffffffffffff1673ffffffffffffffffffffffffffffffffffffffff163373ffffffffffffffffffffffffffffffffffffffff1614905090565b60015481565b610a75611c21565b60008090505b60098160ff161015610b0757600383815481101515610a9657fe5b90600052602060002090600802016007018160ff16600981101515610ab757fe5b602091828204019190069054906101000a900460ff166002811115610ad857fe5b828260ff16600981101515610ae957fe5b602002019060ff16908160ff16815250508080600101915050610a7b565b50919050565b600082600381815481101515610b1f57fe5b906000526020600020906008020173__gameLib_______________________________637990ced890916040518263ffffffff167c01000000000000000000000000000000000000000000000000000000000281526004018082815260200191505060206040518083038186803b158015610b9957600080fd5b505af4158015610bad573d6000803e3d6000fd5b505050506040513d6020811015610bc357600080fd5b81019080805190602001909291905050501515610bdf57600080fd5b8383600382815481101515610bf057fe5b906000526020600020906008020173__gameLib_______________________________633a8172279091836040518363ffffffff167c0100000000000000000000000000000000000000000000000000000000028152600401808381526020018260ff1660ff1681526020019250505060206040518083038186803b158015610c7857600080fd5b505af4158015610c8c573d6000803e3d6000fd5b505050506040513d6020811015610ca257600080fd5b81019080805190602001909291905050501515610cbe57600080fd5b85600381815481101515610cce57fe5b906000526020600020906008020173__gameLib_______________________________63cfbad97f9091336040518363ffffffff167c0100000000000000000000000000000000000000000000000000000000028152600401808381526020018273ffffffffffffffffffffffffffffffffffffffff1673ffffffffffffffffffffffffffffffffffffffff1681526020019250505060206040518083038186803b158015610d7c57600080fd5b505af4158015610d90573d6000803e3d6000fd5b505050506040513d6020811015610da657600080fd5b81019080805190602001909291905050501515610dc257600080fd5b600387815481101515610dd157fe5b906000526020600020906008020173__gameLib_______________________________63e7accc9a90916040518263ffffffff167c01000000000000000000000000000000000000000000000000000000000281526004018082815260200191505060206040518083038186803b158015610e4b57600080fd5b505af4158015610e5f573d6000803e3d6000fd5b505050506040513d6020811015610e7557600080fd5b810190808051906020019092919050505015610e9d57610e968760036115f7565b9450611162565b600387815481101515610eac57fe5b906000526020600020906008020173__gameLib_______________________________6327d5f7fb9091886040518363ffffffff167c0100000000000000000000000000000000000000000000000000000000028152600401808381526020018260ff1660ff1681526020019250505060206040518083038186803b158015610f3457600080fd5b505af4158015610f48573d6000803e3d6000fd5b505050506040513d6020811015610f5e57600080fd5b81019080805190602001909291905050501515610f7a57600080fd5b600387815481101515610f8957fe5b906000526020600020906008020173__gameLib_______________________________6311dcae0590916040518263ffffffff167c01000000000000000000000000000000000000000000000000000000000281526004018082815260200191505060206040518083038186803b15801561100357600080fd5b505af4158015611017573d6000803e3d6000fd5b505050506040513d602081101561102d57600080fd5b8101908080519060200190929190505050156110555761104e8760016115f7565b9450611162565b60038781548110151561106457fe5b906000526020600020906008020173__gameLib_______________________________6345a8bb6f90916040518263ffffffff167c01000000000000000000000000000000000000000000000000000000000281526004018082815260200191505060206040518083038186803b1580156110de57600080fd5b505af41580156110f2573d6000803e3d6000fd5b505050506040513d602081101561110857600080fd5b810190808051906020019092919050505015611130576111298760026115f7565b9450611162565b867ff0e14edddeb1a8137667b41736c29944744cf4d8cc1b37661e0fdfb7c4b08b9560405160405180910390a2600194505b5050505092915050565b60025481565b61117a610a10565b151561118557600080fd5b61118d6109e7565b73ffffffffffffffffffffffffffffffffffffffff166108fc6001549081150290604051600060405180830381858888f193505050501580156111d4573d6000803e3d6000fd5b506000600181905550565b6000826003818154811015156111f157fe5b906000526020600020906008020173__gameLib_______________________________637990ced890916040518263ffffffff167c01000000000000000000000000000000000000000000000000000000000281526004018082815260200191505060206040518083038186803b15801561126b57600080fd5b505af415801561127f573d6000803e3d6000fd5b505050506040513d602081101561129557600080fd5b810190808051906020019092919050505015156112b157600080fd5b83836003828154811015156112c257fe5b906000526020600020906008020173__gameLib_______________________________633a8172279091836040518363ffffffff167c0100000000000000000000000000000000000000000000000000000000028152600401808381526020018260ff1660ff1681526020019250505060206040518083038186803b15801561134a57600080fd5b505af415801561135e573d6000803e3d6000fd5b505050506040513d602081101561137457600080fd5b8101908080519060200190929190505050151561139057600080fd5b60038681548110151561139f57fe5b906000526020600020906008020160060160009054906101000a900460ff1660ff1660011480156113f05750346003878154811015156113db57fe5b90600052602060002090600802016003015411155b15156113fb57600080fd5b60038681548110151561140a57fe5b906000526020600020906008020173__gameLib_______________________________6363ce56a5909133886040518463ffffffff167c0100000000000000000000000000000000000000000000000000000000028152600401808481526020018373ffffffffffffffffffffffffffffffffffffffff1673ffffffffffffffffffffffffffffffffffffffff1681526020018260ff1660ff168152602001935050505060206040518083038186803b1580156114c657600080fd5b505af41580156114da573d6000803e3d6000fd5b505050506040513d60208110156114f057600080fd5b8101908080519060200190929190505050151561150c57600080fd5b857ff0e14edddeb1a8137667b41736c29944744cf4d8cc1b37661e0fdfb7c4b08b9560405160405180910390a23460038781548110151561154957fe5b90600052602060002090600802016003015410156115cb573373ffffffffffffffffffffffffffffffffffffffff166108fc60038881548110151561158a57fe5b90600052602060002090600802016003015434039081150290604051600060405180830381858888f193505050501580156115c9573d6000803e3d6000fd5b505b6001935050505092915050565b6115e0610a10565b15156115eb57600080fd5b6115f481611a61565b50565b600080600080611605611c45565b60038781548110151561161457fe5b906000526020600020906008020161010060405190810160405290816000820160009054906101000a900473ffffffffffffffffffffffffffffffffffffffff1673ffffffffffffffffffffffffffffffffffffffff1673ffffffffffffffffffffffffffffffffffffffff1681526020016001820160009054906101000a900473ffffffffffffffffffffffffffffffffffffffff1673ffffffffffffffffffffffffffffffffffffffff1673ffffffffffffffffffffffffffffffffffffffff168152602001600282015481526020016003820154815260200160048201548152602001600582015481526020016006820160009054906101000a900460ff1660ff1660ff1681526020016007820160098060200260405190810160405280929190826009801561178a576020028201916000905b82829054906101000a900460ff16600281111561176457fe5b8152602001906001019060208260000104928301926001038202915080841161174b5790505b505050505081525050905060008660ff1614156117ad57806040015192506118d1565b60018660ff1614156117fd57600160028260c0015160ff168115156117ce57fe5b0660ff1614156117ea57806060015181604001510192506117f8565b806060015181604001510191505b6118d0565b60028660ff161415611865576064816060015181151561181957fe5b046064826040015181151561182a57fe5b040193506064816040015181151561183e57fe5b0481604001510392506064816060015181151561185757fe5b0481606001510391506118cf565b60038660ff1614156118ce576064816060015182604001510181151561188757fe5b049350600160028260c0015160ff1681151561189f57fe5b0660ff1614156118bd578381606001518260400151010392506118cd565b8381606001518260400151010391505b5b5b5b5b6003878154811015156118e057fe5b906000526020600020906008020173__gameLib_______________________________63ab1a2a229091886040518363ffffffff167c0100000000000000000000000000000000000000000000000000000000028152600401808381526020018260ff1660ff1681526020019250505060006040518083038186803b15801561196857600080fd5b505af415801561197c573d6000803e3d6000fd5b5050505083600160008282540192505081905550806000015173ffffffffffffffffffffffffffffffffffffffff166108fc849081150290604051600060405180830381858888f193505050501580156119da573d6000803e3d6000fd5b50806020015173ffffffffffffffffffffffffffffffffffffffff166108fc839081150290604051600060405180830381858888f19350505050158015611a25573d6000803e3d6000fd5b50867ff0e14edddeb1a8137667b41736c29944744cf4d8cc1b37661e0fdfb7c4b08b9560405160405180910390a2600194505050505092915050565b600073ffffffffffffffffffffffffffffffffffffffff168173ffffffffffffffffffffffffffffffffffffffff1614151515611a9d57600080fd5b8073ffffffffffffffffffffffffffffffffffffffff166000809054906101000a900473ffffffffffffffffffffffffffffffffffffffff1673ffffffffffffffffffffffffffffffffffffffff167f8be0079c531659141344cd1fd0a4f28419497f9722a3daafe3b4186f6b6457e060405160405180910390a3806000806101000a81548173ffffffffffffffffffffffffffffffffffffffff021916908373ffffffffffffffffffffffffffffffffffffffff16021790555050565b61012060405190810160405280600990602082028038833980820191505090505090565b826009601f01602090048101928215611c105791602002820160005b83821115611be157835183826101000a81548160ff02191690836002811115611bc057fe5b02179055509260200192600101602081600001049283019260010302611b9b565b8015611c0e5782816101000a81549060ff0219169055600101602081600001049283019260010302611be1565b505b509050611c1d9190611cc0565b5090565b61012060405190810160405280600990602082028038833980820191505090505090565b61020060405190810160405280600073ffffffffffffffffffffffffffffffffffffffff168152602001600073ffffffffffffffffffffffffffffffffffffffff16815260200160008152602001600081526020016000815260200160008152602001600060ff168152602001611cba611cf0565b81525090565b611ced91905b80821115611ce957600081816101000a81549060ff021916905550600101611cc6565b5090565b90565b610120604051908101604052806009906020820280388339808201915050905050905600a165627a7a723058204152584b9f1c2ec9569655407b205002d4c7f5fc5ca3908d65b8db0ffca5f2070029",
  "source": "pragma solidity ^0.4.24;\nimport \"./Ownable.sol\";\nimport \"./gameLib.sol\";\n\ncontract tictactoeth is Ownable{\n\n  uint public fees;\n  function collectFees() external onlyOwner(){\n    owner().transfer( fees );\n    fees = 0;\n  }\n  uint constant feeDivisor = 100;\n  uint constant minBet = 100;\n  uint constant minTurn = 280; // approx. 5 minutes\n  uint constant maxTurn = 864020; // approx. 10 days \n\n  uint public numGames;\n  gameLib.game[] public games;\n  using gameLib for gameLib.game;\n  event gameEvent(\n      uint indexed id\n  );\n  modifier validGame(uint id){\n    require( games[id].isValidGame() );\n    _;\n  }\n  modifier playerTurn(uint id){\n    require( games[id].isPlayerTurn(msg.sender) );\n    _;\n  }\n  modifier validMove(uint id, uint8 move){\n    require( games[id].isValidMove(move) );\n    _;\n  }\n  function getMoves(uint id) external view returns (uint8[9] moves){\n    for(uint8 i=0; i < 9; i++){\n      moves[i] = uint8( games[id].moves[i] );\n    }\n  }\n\n  function newGame( uint wager, uint turn, uint8 move ) payable external returns( uint ){\n    require( minBet < msg.value ); \n    require( minBet < wager );\n    require( minTurn < turn && turn < maxTurn );\n    require( move < 9 );\n\n    gameLib.mark[9] memory moves;\n    moves[move]=gameLib.mark.pX;\n\n    games.push( gameLib.game( msg.sender, 0, msg.value, wager, turn, 0, 1, moves ) );\n    numGames++;\n    emit gameEvent( numGames - 1 );\n    return( numGames - 1 );\n  }\n\n  function cancelGame(uint id) external validGame(id) returns (bool){\n    require( 1 == games[id].numMoves && msg.sender == games[id].playerX );\n    return endGame( id, 0 );\n  }\n\n  function joinGame( uint id, uint8 move ) payable external validGame(id) validMove(id,move) returns (bool){\n    require( 1 == games[id].numMoves && games[id].wager <= msg.value );\n\n    require( games[id].join( msg.sender, move ) );\n    emit gameEvent( id );\n\n    if( games[id].wager < msg.value ) msg.sender.transfer( msg.value - games[id].wager );\n    return true;\n  }\n\n  function newMove( uint id, uint8 move ) external validGame(id) validMove(id,move) playerTurn(id) returns(bool){\n    if( games[id].isTimeout() ) return endGame(id,3);\n\n    require( games[id].newMove( move ) );\n\n    if( games[id].isWin() ) return endGame(id,1);\n    else if( games[id].isOver() ) return endGame(id,2);\n\n    emit gameEvent(id);\n    return true;\n  }\n\n  function endGame(uint id, uint8 code) private returns (bool){\n    uint vig;\n    uint payX;\n    uint payO;\n    gameLib.game memory gm = games[id];\n\n    if(code==0){ // Cancel\n      payX = gm.bet; \n    }\n    else if(code==1){ // Win\n      if( gm.numMoves % 2 == 1 ) payX = gm.bet + gm.wager;\n      else payO = gm.bet + gm.wager;\n    }\n    else if(code==2){ //  Stalemate\n      vig = (gm.bet / feeDivisor) + (gm.wager / feeDivisor);\n      payX = gm.bet - (gm.bet / feeDivisor);\n      payO = gm.wager - (gm.wager / feeDivisor); \n    }\n    else if(code==3){ // Timeout\n      vig = (gm.bet + gm.wager) / feeDivisor;\n      if( gm.numMoves % 2 == 1 ) payX = gm.bet + gm.wager - vig;\n      else payO = gm.bet + gm.wager - vig;\n    }\n\n    games[id].end(code); \n    fees += vig;\n    gm.playerX.transfer(payX);\n    gm.playerO.transfer(payO);\n    emit gameEvent(id);\n    return true;\n  }\n}",
  "sourcePath": "/var/www/tictactoeth_sol/contracts/tictactoeth.sol",
  "compiler": {
    "name": "solc",
    "version": "0.4.24+commit.e67f0147.Emscripten.clang"
  },
  "schemaVersion": "2.0.1",
  "updatedAt": "2018-12-18T05:05:06.738Z"
}